{
  "_format": "hh-sol-artifact-1",
  "contractName": "SafeTokenLock",
  "sourceName": "contracts/SafeTokenLock.sol",
  "abi": [
    {
      "inputs": [
        {
          "internalType": "address",
          "name": "initialOwner",
          "type": "address"
        },
        {
          "internalType": "address",
          "name": "safeToken",
          "type": "address"
        },
        {
          "internalType": "uint32",
          "name": "cooldownPeriod",
          "type": "uint32"
        }
      ],
      "stateMutability": "nonpayable",
      "type": "constructor"
    },
    {
      "inputs": [
        {
          "internalType": "address",
          "name": "target",
          "type": "address"
        }
      ],
      "name": "AddressEmptyCode",
      "type": "error"
    },
    {
      "inputs": [
        {
          "internalType": "address",
          "name": "account",
          "type": "address"
        }
      ],
      "name": "AddressInsufficientBalance",
      "type": "error"
    },
    {
      "inputs": [],
      "name": "CannotRescueSafeToken",
      "type": "error"
    },
    {
      "inputs": [],
      "name": "FailedInnerCall",
      "type": "error"
    },
    {
      "inputs": [],
      "name": "InvalidCooldownPeriod",
      "type": "error"
    },
    {
      "inputs": [],
      "name": "InvalidSafeTokenAddress",
      "type": "error"
    },
    {
      "inputs": [],
      "name": "InvalidTokenAmount",
      "type": "error"
    },
    {
      "inputs": [
        {
          "internalType": "address",
          "name": "owner",
          "type": "address"
        }
      ],
      "name": "OwnableInvalidOwner",
      "type": "error"
    },
    {
      "inputs": [
        {
          "internalType": "address",
          "name": "account",
          "type": "address"
        }
      ],
      "name": "OwnableUnauthorizedAccount",
      "type": "error"
    },
    {
      "inputs": [
        {
          "internalType": "address",
          "name": "token",
          "type": "address"
        }
      ],
      "name": "SafeERC20FailedOperation",
      "type": "error"
    },
    {
      "inputs": [],
      "name": "UnlockAmountExceeded",
      "type": "error"
    },
    {
      "anonymous": false,
      "inputs": [
        {
          "indexed": true,
          "internalType": "address",
          "name": "holder",
          "type": "address"
        },
        {
          "indexed": false,
          "internalType": "uint96",
          "name": "amount",
          "type": "uint96"
        }
      ],
      "name": "Locked",
      "type": "event"
    },
    {
      "anonymous": false,
      "inputs": [
        {
          "indexed": true,
          "internalType": "address",
          "name": "previousOwner",
          "type": "address"
        },
        {
          "indexed": true,
          "internalType": "address",
          "name": "newOwner",
          "type": "address"
        }
      ],
      "name": "OwnershipTransferStarted",
      "type": "event"
    },
    {
      "anonymous": false,
      "inputs": [
        {
          "indexed": true,
          "internalType": "address",
          "name": "previousOwner",
          "type": "address"
        },
        {
          "indexed": true,
          "internalType": "address",
          "name": "newOwner",
          "type": "address"
        }
      ],
      "name": "OwnershipTransferred",
      "type": "event"
    },
    {
      "anonymous": false,
      "inputs": [
        {
          "indexed": true,
          "internalType": "address",
          "name": "holder",
          "type": "address"
        },
        {
          "indexed": true,
          "internalType": "uint32",
          "name": "index",
          "type": "uint32"
        },
        {
          "indexed": false,
          "internalType": "uint96",
          "name": "amount",
          "type": "uint96"
        }
      ],
      "name": "Unlocked",
      "type": "event"
    },
    {
      "anonymous": false,
      "inputs": [
        {
          "indexed": true,
          "internalType": "address",
          "name": "holder",
          "type": "address"
        },
        {
          "indexed": true,
          "internalType": "uint32",
          "name": "index",
          "type": "uint32"
        },
        {
          "indexed": false,
          "internalType": "uint96",
          "name": "amount",
          "type": "uint96"
        }
      ],
      "name": "Withdrawn",
      "type": "event"
    },
    {
      "inputs": [],
      "name": "COOLDOWN_PERIOD",
      "outputs": [
        {
          "internalType": "uint64",
          "name": "",
          "type": "uint64"
        }
      ],
      "stateMutability": "view",
      "type": "function"
    },
    {
      "inputs": [],
      "name": "SAFE_TOKEN",
      "outputs": [
        {
          "internalType": "address",
          "name": "",
          "type": "address"
        }
      ],
      "stateMutability": "view",
      "type": "function"
    },
    {
      "inputs": [],
      "name": "acceptOwnership",
      "outputs": [],
      "stateMutability": "nonpayable",
      "type": "function"
    },
    {
      "inputs": [
        {
          "internalType": "address",
          "name": "holder",
          "type": "address"
        },
        {
          "internalType": "uint32",
          "name": "index",
          "type": "uint32"
        }
      ],
      "name": "getUnlock",
      "outputs": [
        {
          "components": [
            {
              "internalType": "uint96",
              "name": "amount",
              "type": "uint96"
            },
            {
              "internalType": "uint64",
              "name": "maturesAt",
              "type": "uint64"
            }
          ],
          "internalType": "struct ISafeTokenLock.UnlockInfo",
          "name": "unlockInfo",
          "type": "tuple"
        }
      ],
      "stateMutability": "view",
      "type": "function"
    },
    {
      "inputs": [
        {
          "internalType": "address",
          "name": "holder",
          "type": "address"
        }
      ],
      "name": "getUser",
      "outputs": [
        {
          "components": [
            {
              "internalType": "uint96",
              "name": "locked",
              "type": "uint96"
            },
            {
              "internalType": "uint96",
              "name": "unlocked",
              "type": "uint96"
            },
            {
              "internalType": "uint32",
              "name": "unlockStart",
              "type": "uint32"
            },
            {
              "internalType": "uint32",
              "name": "unlockEnd",
              "type": "uint32"
            }
          ],
          "internalType": "struct ISafeTokenLock.User",
          "name": "user",
          "type": "tuple"
        }
      ],
      "stateMutability": "view",
      "type": "function"
    },
    {
      "inputs": [
        {
          "internalType": "address",
          "name": "holder",
          "type": "address"
        }
      ],
      "name": "getUserTokenBalance",
      "outputs": [
        {
          "internalType": "uint96",
          "name": "amount",
          "type": "uint96"
        }
      ],
      "stateMutability": "view",
      "type": "function"
    },
    {
      "inputs": [
        {
          "internalType": "uint96",
          "name": "amount",
          "type": "uint96"
        }
      ],
      "name": "lock",
      "outputs": [],
      "stateMutability": "nonpayable",
      "type": "function"
    },
    {
      "inputs": [],
      "name": "owner",
      "outputs": [
        {
          "internalType": "address",
          "name": "",
          "type": "address"
        }
      ],
      "stateMutability": "view",
      "type": "function"
    },
    {
      "inputs": [],
      "name": "pendingOwner",
      "outputs": [
        {
          "internalType": "address",
          "name": "",
          "type": "address"
        }
      ],
      "stateMutability": "view",
      "type": "function"
    },
    {
      "inputs": [],
      "name": "renounceOwnership",
      "outputs": [],
      "stateMutability": "nonpayable",
      "type": "function"
    },
    {
      "inputs": [
        {
          "internalType": "address",
          "name": "token",
          "type": "address"
        },
        {
          "internalType": "address",
          "name": "beneficiary",
          "type": "address"
        },
        {
          "internalType": "uint256",
          "name": "amount",
          "type": "uint256"
        }
      ],
      "name": "rescueToken",
      "outputs": [],
      "stateMutability": "nonpayable",
      "type": "function"
    },
    {
      "inputs": [
        {
          "internalType": "address",
          "name": "newOwner",
          "type": "address"
        }
      ],
      "name": "transferOwnership",
      "outputs": [],
      "stateMutability": "nonpayable",
      "type": "function"
    },
    {
      "inputs": [
        {
          "internalType": "uint96",
          "name": "amount",
          "type": "uint96"
        }
      ],
      "name": "unlock",
      "outputs": [
        {
          "internalType": "uint32",
          "name": "index",
          "type": "uint32"
        }
      ],
      "stateMutability": "nonpayable",
      "type": "function"
    },
    {
      "inputs": [
        {
          "internalType": "uint32",
          "name": "maxUnlocks",
          "type": "uint32"
        }
      ],
      "name": "withdraw",
      "outputs": [
        {
          "internalType": "uint96",
          "name": "amount",
          "type": "uint96"
        }
      ],
      "stateMutability": "nonpayable",
      "type": "function"
    }
  ],
  "bytecode": "0x60c03461014c57601f620014ad38819003918201601f191683019291906001600160401b0384118385101761015157816060928492604096875283398101031261014c5761004c81610167565b908261005a60208301610167565b9101519163ffffffff831680930361014c576001600160a01b039081169081156101345760018060a01b0319918260015416600155806000549384161760005581865193167f8be0079c531659141344cd1fd0a4f28419497f9722a3daafe3b4186f6b6457e0600080a3821615610125575081156101145760805260a0525161133190816200017c82396080518181816102590152818161050f0152818161096d0152610a35015260a051818181610d550152610f030152f35b8251631a3c1dd960e01b8152600490fd5b630fdb9b3b60e21b8152600490fd5b8451631e4fbdf760e01b815260006004820152602490fd5b600080fd5b634e487b7160e01b600052604160045260246000fd5b51906001600160a01b038216820361014c5756fe608080604052600436101561001357600080fd5b60e0600035811c91826306fa456514610e4a575081635fb5fcd714610d795781636e99d52f14610d165781636f77926b14610c2d578163715018a614610b8857816379ba509714610aab5781638da5cb5b14610a595781638f7b7262146109ea578163aa9224cd1461061157508063b5346af514610466578063e30c397814610414578063e5711e8b146101f2578063f2fde38b146101455763f5aec88c146100bb57600080fd5b346101405760207ffffffffffffffffffffffffffffffffffffffffffffffffffffffffffffffffc3601126101405773ffffffffffffffffffffffffffffffffffffffff610107611130565b16600052600260205260206040600020546101376bffffffffffffffffffffffff9182808260601c1691166111ea565b60405191168152f35b600080fd5b346101405760207ffffffffffffffffffffffffffffffffffffffffffffffffffffffffffffffffc3601126101405761017c611130565b61018461123a565b73ffffffffffffffffffffffffffffffffffffffff80911690817fffffffffffffffffffffffff00000000000000000000000000000000000000006001541617600155600054167f38d16b8cac22d99fc7c124b9cd0de2d3fa1faef420bfe791d8c362d765e22700600080a3005b346101405760607ffffffffffffffffffffffffffffffffffffffffffffffffffffffffffffffffc36011261014057610229611130565b60243573ffffffffffffffffffffffffffffffffffffffff91828216820361014057829061025561123a565b16917f00000000000000000000000000000000000000000000000000000000000000001682146103ea576040517fa9059cbb000000000000000000000000000000000000000000000000000000006020820190815273ffffffffffffffffffffffffffffffffffffffff929092166024820152604480358183015281527fffffffffffffffffffffffffffffffffffffffffffffffffffffffffffffffe09160009182919061030560648261118b565b519082865af1903d156103dd573d9167ffffffffffffffff83116103ae5761034d9261033c602060405194601f840116018461118b565b82523d6000602084013e5b8361125b565b8051908115159182610393575b505061036257005b602490604051907f5274afe70000000000000000000000000000000000000000000000000000000082526004820152fd5b6103a69250602080918301019101611222565b15828061035a565b7f4e487b7100000000000000000000000000000000000000000000000000000000600052604160045260246000fd5b5061034d90606090610347565b60046040517f07d75b9b000000000000000000000000000000000000000000000000000000008152fd5b346101405760007ffffffffffffffffffffffffffffffffffffffffffffffffffffffffffffffffc36011261014057602073ffffffffffffffffffffffffffffffffffffffff60015416604051908152f35b34610140576020807ffffffffffffffffffffffffffffffffffffffffffffffffffffffffffffffffc360112610140576004356bffffffffffffffffffffffff91828216928383036101405783156105e757604051927f23b872dd0000000000000000000000000000000000000000000000000000000084523360048501523060248501528460448501528284606481600073ffffffffffffffffffffffffffffffffffffffff7f0000000000000000000000000000000000000000000000000000000000000000165af19384156105db577fe87ef84d870121e49051dda6f8d297713cb00a0c072c0d771f78ea368815009f946105ae575b5033600052600283527fffffffffffffffffffffffffffffffffffffffff00000000000000000000000060406000209261059d8454938285166111ea565b1691161790556040519283523392a2005b6105cd90843d86116105d4575b6105c5818361118b565b810190611222565b508561055f565b503d6105bb565b6040513d6000823e3d90fd5b60046040517f21607339000000000000000000000000000000000000000000000000000000008152fd5b346101405760207ffffffffffffffffffffffffffffffffffffffffffffffffffffffffffffffffc3601126101405760043563ffffffff811691828203610140576000903360005260026020526040600020926040519361067185611153565b546bffffffffffffffffffffffff811685526bffffffffffffffffffffffff8160601c16602086015263ffffffff8160c01c1690816040870152831c95866060870152819663ffffffff6106c5858561120a565b161090816109e0575b50156109cd5763ffffffff916106e39161120a565b9490505b63ffffffff851663ffffffff821610156109c35763ffffffff81166000526003602052604060002033600052602052604060002092604051936107298561116f565b546bffffffffffffffffffffffff8116855267ffffffffffffffff8160601c1680602087015242106107d25763ffffffff926bffffffffffffffffffffffff61077885948260019516906111ea565b965116604051908152838216907fd37890a72e2e5df42bee9bd278d8b896297dffeb08b2b2503f726cfb2e3b982660203392a3828116600052600360205260406000203360005260205260006040812055011690506106e7565b5093925093505b6bffffffffffffffffffffffff831693846107fa575b602085604051908152f35b7fffffffff0000000000000000000000000000000000000000000000000000000063ffffffff606061084e6bffffffffffffffffffffffff875116976bffffffffffffffffffffffff6020890151166111cc565b95015116926040519561086087611153565b86526bffffffffffffffffffffffff602087019516855263ffffffff6040870193168352606086019384523360005260026020527bffffffff00000000000000000000000000000000000000000000000077ffffffffffffffffffffffff0000000000000000000000006bffffffffffffffffffffffff6040600020985116965160601b16935160c01b169351901b16921717179055604051907fa9059cbb000000000000000000000000000000000000000000000000000000008252602082806109528433600484016020909392919373ffffffffffffffffffffffffffffffffffffffff60408201951681520152565b0381600073ffffffffffffffffffffffffffffffffffffffff7f0000000000000000000000000000000000000000000000000000000000000000165af19182156105db576020926109a6575b8192816107ef565b6109bc90833d85116105d4576105c5818361118b565b508261099e565b93509190916107d9565b5050606083015163ffffffff16936106e7565b90501515876106ce565b346101405760007ffffffffffffffffffffffffffffffffffffffffffffffffffffffffffffffffc36011261014057602060405173ffffffffffffffffffffffffffffffffffffffff7f0000000000000000000000000000000000000000000000000000000000000000168152f35b346101405760007ffffffffffffffffffffffffffffffffffffffffffffffffffffffffffffffffc36011261014057602073ffffffffffffffffffffffffffffffffffffffff60005416604051908152f35b346101405760007ffffffffffffffffffffffffffffffffffffffffffffffffffffffffffffffffc3601126101405760015473ffffffffffffffffffffffffffffffffffffffff3381831603610b58577fffffffffffffffffffffffff00000000000000000000000000000000000000008092166001556000549133908316176000553391167f8be0079c531659141344cd1fd0a4f28419497f9722a3daafe3b4186f6b6457e0600080a3005b60246040517f118cdaa7000000000000000000000000000000000000000000000000000000008152336004820152fd5b346101405760007ffffffffffffffffffffffffffffffffffffffffffffffffffffffffffffffffc36011261014057610bbf61123a565b600073ffffffffffffffffffffffffffffffffffffffff7fffffffffffffffffffffffff0000000000000000000000000000000000000000806001541660015582549081168355167f8be0079c531659141344cd1fd0a4f28419497f9722a3daafe3b4186f6b6457e08280a3005b346101405760207ffffffffffffffffffffffffffffffffffffffffffffffffffffffffffffffffc3601126101405760809073ffffffffffffffffffffffffffffffffffffffff610c7c611130565b60006060604051610c8c81611153565b828152826020820152826040820152015216600052600260205260406000209060405191610cb983611153565b54906bffffffffffffffffffffffff91828116938481526020810193808360601c16855263ffffffff94859360606040850194868360c01c16865201951c8552604051968752511660208601525116604084015251166060820152f35b346101405760007ffffffffffffffffffffffffffffffffffffffffffffffffffffffffffffffffc36011261014057602060405167ffffffffffffffff7f0000000000000000000000000000000000000000000000000000000000000000168152f35b346101405760407ffffffffffffffffffffffffffffffffffffffffffffffffffffffffffffffffc36011261014057610db0611130565b60243563ffffffff81168091036101405760006020604051610dd18161116f565b8281520152600052600360205273ffffffffffffffffffffffffffffffffffffffff604060002091166000526020526040806000206020825191610e148361116f565b546bffffffffffffffffffffffff81169283815267ffffffffffffffff928391019160601c168152835192835251166020820152f35b3461014057602091827ffffffffffffffffffffffffffffffffffffffffffffffffffffffffffffffffc36011261014057600435916bffffffffffffffffffffffff808416918285036101405782156111085750336000526002855260406000209060405191610eb983611153565b54938185169182845287840193818760601c16855263ffffffff96866040830195898360c01c1687526060840192861c8352106110de575187169767ffffffffffffffff904282167f00000000000000000000000000000000000000000000000000000000000000008316018281116110af57610fba82868c968f8f958e918497610fc29a60405194610f4b8661116f565b8552828501931683526000526003815260406000209033600052528360406000209251167fffffffffffffffffffffffff000000000000000000000000000000000000000073ffffffffffffffff0000000000000000000000008454935160601b1692161717905551166111cc565b9751166111ea565b9351169060018801928784116110af577bffffffff00000000000000000000000000000000000000000000000077ffffffffffffffffffffffff000000000000000000000000838b9a818e7fffffffff000000000000000000000000000000000000000000000000000000009761103d9c6040519d8e611153565b168c528b019916895260408a0196875260608a01971687523360005260028d526040600020985116965160601b16935160c01b169351901b169217171790556040519081527f1bd2aac5b8fbf8aacc4b880dbd7230d62fc208b7c317a6f219a23703a80262c8843392a3604051908152f35b7f4e487b7100000000000000000000000000000000000000000000000000000000600052601160045260246000fd5b60046040517fe4bbae2f000000000000000000000000000000000000000000000000000000008152fd5b807f216073390000000000000000000000000000000000000000000000000000000060049252fd5b6004359073ffffffffffffffffffffffffffffffffffffffff8216820361014057565b6080810190811067ffffffffffffffff8211176103ae57604052565b6040810190811067ffffffffffffffff8211176103ae57604052565b90601f7fffffffffffffffffffffffffffffffffffffffffffffffffffffffffffffffe0910116810190811067ffffffffffffffff8211176103ae57604052565b6bffffffffffffffffffffffff91821690821603919082116110af57565b9190916bffffffffffffffffffffffff808094169116019182116110af57565b91909163ffffffff808094169116019182116110af57565b90816020910312610140575180151581036101405790565b73ffffffffffffffffffffffffffffffffffffffff600054163303610b5857565b9061129a575080511561127057805190602001fd5b60046040517f1425ea42000000000000000000000000000000000000000000000000000000008152fd5b815115806112f2575b6112ab575090565b60249073ffffffffffffffffffffffffffffffffffffffff604051917f9996b315000000000000000000000000000000000000000000000000000000008352166004820152fd5b50803b156112a356fea2646970667358221220415131000c03956c140cb6955484c7780a741443e495fc87342f4b128b30332d64736f6c63430008170033",
  "linkReferences": {},
  "deployedLinkReferences": {}
}